:020000040800F2
:10000000000002208D010008CD010008CD0100088C
:10001000CD010008CD010008CD010008000000005E
:10002000000000000000000000000000CD010008FA
:10003000CD01000800000000CD010008CD0100083E
:10004000CD01000810B5054C237833B9044B13B12A
:100050000448AFF300800123237010BD3804002052
:1000600000000000A005000808B5034B1BB10349C0
:100070000348AFF3008008BD000000003C040020EE
:10008000A0050008A3F5803A704700BF174B002B6E
:1000900008BF134B9D46FFF7F5FF00218B460F4627
:1000A0001348144A121A00F0C7F80E4B002B00D068
:1000B00098470D4B002B00D09847002000210400EA
:1000C0000D000D48002802D00C4800F077F900F030
:1000D0008FF82000290000F03FF800F079F800BF09
:1000E00000000800000000000000000000000220E6
:1000F000380400206C2B0020BD030008C903000851
:10010000002303E0134A0021D154013342F210725C
:100110009342F7DD022316E00E484FF0010C00F881
:1001200002C0614401FB03F242F210708242F3DD2F
:10013000013300E0013342F21072934203DC054ABE
:10014000D25C012AF6D042F21072934201DC022105
:10015000E8E770475404002010B5002000F09FF934
:1001600000F094F90849002000F0AEF909E0FFF72B
:10017000C7FF2146002000F0D5F90134E4B2592C24
:10018000F5D94124FBE700BF800500080A490B4A66
:100190000B4B9A42BEBF51F8040B42F8040BF8E730
:1001A0000849094A00209142BCBF41F8040BFAE714
:1001B00000F0D9F9FFF76AFFAC0500080000002045
:1001C00038040020380400206C2B0020FEE700BF1C
:1001D00008B50021044600F08BF8044B1868C36B87
:1001E00003B19847204600F04FF900BF9C05000876
:1001F00070B50D4E0D4D761BB61006D0002455F887
:10020000043B01349847A642F9D1094E094D761BAB
:1002100000F0AAF9B61006D0002455F8043B0134CA
:100220009847A642F9D170BD2C0400202C04002070
:10023000340400202C040020830730B548D0541E1D
:10024000002A3FD0CAB2034601E0013C3AD303F88A
:10025000012B9D07F9D1032C2DD9CDB245EA0525F7
:100260000F2C45EA054536D9A4F1100222F00F0CF7
:1002700003F1200EE6444FEA121C03F1100242E99A
:10028000045542E9025510327245F8D10CF10102D1
:1002900014F00C0F03EB021204F00F0C13D0ACF1AE
:1002A000040323F003030433134442F8045B934232
:1002B000FBD10CF003042CB1CAB21C4403F8012B8F
:1002C0009C42FBD130BD64461346002CF4D1F9E7C3
:1002D00003461446BFE71A46A446E0E7024B13B1B3
:1002E000024800F06BB8704700000000C903000826
:1002F0002DE9F84F2F4B2DED028B834618680F46E2
:1003000000F078F82C4BD3F80080D8F84861AEB1F3
:1003100008EE10BA4FF001094FF0000A7468651E2C
:100320000CD4013406EB840487B1D4F80031BB420D
:100330000CD0013D6B1CA4F10404F5D1BDEC028B83
:100340001C4B1868BDE8F84F00F056B87368226877
:10035000013BAB420CBF7560C4F800A0002AE8D096
:10036000D6F88801D6F804B009FA05F101420BD19C
:10037000904772685A4513D1D8F84831B342D8D063
:100380001E46002ECAD1D9E7D6F88C0101420CD105
:10039000D4F8801018EE100A904772685A45EBD0D6
:1003A000D8F84861002EB9D1C8E7D4F8800090474A
:1003B000DFE700BF280400209C0500080023014659
:1003C0001A46184600F01AB838B5084B084D5B1BA2
:1003D0009C1007D0043B1D44013C55F80439984754
:1003E000002CF9D1BDE8384000F0C4B83804002032
:1003F00034040020704700BF704700BF2DE9F0476C
:10040000DFF880A00646DAF8000098460F469146CD
:10041000FFF7F0FF1A4B1B68D3F8484124B3656817
:100420001F2D26DC5EB96B1C0235DAF80000636014
:1004300044F82570FFF7E0FF0020BDE8F08704EBEB
:1004400085010123C1F88890D4F88821AB401A4374
:10045000022EC4F88821C1F80881E4D1D4F88C2197
:100460001343C4F88C31DEE703F5A674C3F84841A2
:10047000D5E7DAF80000FFF7BFFF4FF0FF30DCE709
:100480009C05000828040020FEE700BF4FF0E02292
:10049000D2F8FC3D43F08073C2F8FC3D70474FF04A
:1004A0006041D1F8003E012282401343C1F8003E72
:1004B00070474FF06043D3F8002E012383401A4267
:1004C00014BF012000207047F8B541B306460C4622
:1004D000FFF7EFFF08BB002522E0013504B32778C2
:1004E000F7B101344FF0E023D3F8FC3D13F0807FE7
:1004F000F3D04FF06043D3F8803E13F0010FECD0FF
:100500003046FFF7D6FF0028E7D0B30003F1604381
:100510001A68002AF9D01F70DFE70025DEE7002502
:100520002846F8BD38B504464FF0E023D3F8FC0D5B
:1005300010F0807007D00D464FF06043D3F8800E66
:1005400010F0010000D138BD2046FFF7B2FF40B1E6
:10055000A30003F160431A68002AF9D01D7001203E
:10056000F1E70020EFE77047F8B500BFF8BC08BC22
:100570009E467047F8B500BFF8BC08BC9E46704761
:100580000A0A53696D706C65204578616D706C6501
:100590002072756E6E696E670A0000000000002010
:0405A0000000000057
:0805A400E0FAFF7F01000000F6
:1005AC0000000000EC02002054030020BC030020DB
:1005BC00000000000000000000000000000000002F
:1005CC00000000000000000000000000000000001F
:1005DC00000000000000000000000000000000000F
:1005EC0000000000000000000000000000000000FF
:1005FC0000000000000000000000000000000000EF
:10060C0000000000000000000000000000000000DE
:10061C0000000000000000000000000000000000CE
:10062C0000000000000000000000000000000000BE
:10063C0000000000000000000000000000000000AE
:10064C00000000000000000001000000000000009D
:10065C000E33CDAB34126DE6ECDE05000B00000062
:10066C00000000000000000000000000000000007E
:10067C00000000000000000000000000000000006E
:10068C00000000000000000000000000000000005E
:10069C00000000000000000000000000000000004E
:1009CC000000000000000000682B0020DD02000881
:0809DC00690000084500000855
:040000050800018D61
:00000001FF
